{
  "contractName": "Ballot",
  "abi": [
    {
      "inputs": [
        {
          "internalType": "uint256",
          "name": "numProposals",
          "type": "uint256"
        }
      ],
      "stateMutability": "nonpayable",
      "type": "constructor"
    },
    {
      "inputs": [],
      "name": "chairperson",
      "outputs": [
        {
          "internalType": "address",
          "name": "",
          "type": "address"
        }
      ],
      "stateMutability": "view",
      "type": "function"
    },
    {
      "inputs": [
        {
          "internalType": "uint256",
          "name": "",
          "type": "uint256"
        }
      ],
      "name": "proposals",
      "outputs": [
        {
          "internalType": "uint256",
          "name": "voteCount",
          "type": "uint256"
        }
      ],
      "stateMutability": "view",
      "type": "function"
    },
    {
      "inputs": [],
      "name": "state",
      "outputs": [
        {
          "internalType": "enum Ballot.Phase",
          "name": "",
          "type": "uint8"
        }
      ],
      "stateMutability": "view",
      "type": "function"
    },
    {
      "inputs": [
        {
          "internalType": "address",
          "name": "",
          "type": "address"
        }
      ],
      "name": "voters",
      "outputs": [
        {
          "internalType": "uint256",
          "name": "weight",
          "type": "uint256"
        },
        {
          "internalType": "bool",
          "name": "voted",
          "type": "bool"
        },
        {
          "internalType": "uint256",
          "name": "vote",
          "type": "uint256"
        }
      ],
      "stateMutability": "view",
      "type": "function"
    },
    {
      "inputs": [
        {
          "internalType": "enum Ballot.Phase",
          "name": "x",
          "type": "uint8"
        }
      ],
      "name": "changeState",
      "outputs": [],
      "stateMutability": "nonpayable",
      "type": "function"
    },
    {
      "inputs": [
        {
          "internalType": "address",
          "name": "voter",
          "type": "address"
        }
      ],
      "name": "register",
      "outputs": [],
      "stateMutability": "nonpayable",
      "type": "function"
    },
    {
      "inputs": [
        {
          "internalType": "uint256",
          "name": "toProposal",
          "type": "uint256"
        }
      ],
      "name": "vote",
      "outputs": [],
      "stateMutability": "nonpayable",
      "type": "function"
    },
    {
      "inputs": [],
      "name": "reqWinner",
      "outputs": [
        {
          "internalType": "uint256",
          "name": "",
          "type": "uint256"
        }
      ],
      "stateMutability": "view",
      "type": "function"
    }
  ],
  "bytecode": "0x608060405260038060006101000a81548160ff0219169083600381111561002257fe5b021790555034801561003357600080fd5b506040516109f53803806109f58339818101604052602081101561005657600080fd5b8101908080519060200190929190505050336000806101000a81548173ffffffffffffffffffffffffffffffffffffffff021916908373ffffffffffffffffffffffffffffffffffffffff1602179055506002600160008060009054906101000a900473ffffffffffffffffffffffffffffffffffffffff1673ffffffffffffffffffffffffffffffffffffffff1673ffffffffffffffffffffffffffffffffffffffff1681526020019081526020016000206000018190555060005b8181101561016b57600260405180602001604052806000815250908060018154018082558091505060019003906000526020600020016000909190919091506000820151816000015550508080600101915050610113565b506001600360006101000a81548160ff0219169083600381111561018b57fe5b021790555050610855806101a06000396000f3fe608060405234801561001057600080fd5b50600436106100885760003560e01c80634420e4861161005b5780634420e48614610162578063508b30c9146101a6578063a3ec138d146101c4578063c19d93fb1461022c57610088565b80630121b93f1461008d578063013cf08b146100bb578063268f1153146100fd5780632e4176cf1461012e575b600080fd5b6100b9600480360360208110156100a357600080fd5b8101908080359060200190929190505050610255565b005b6100e7600480360360208110156100d157600080fd5b8101908080359060200190929190505050610403565b6040518082815260200191505060405180910390f35b61012c6004803603602081101561011357600080fd5b81019080803560ff16906020019092919050505061042a565b005b610136610542565b604051808273ffffffffffffffffffffffffffffffffffffffff16815260200191505060405180910390f35b6101a46004803603602081101561017857600080fd5b81019080803573ffffffffffffffffffffffffffffffffffffffff169060200190929190505050610566565b005b6101ae610705565b6040518082815260200191505060405180910390f35b610206600480360360208110156101da57600080fd5b81019080803573ffffffffffffffffffffffffffffffffffffffff1690602001909291905050506107b2565b604051808481526020018315158152602001828152602001935050505060405180910390f35b6102346107e9565b6040518082600381111561024457fe5b815260200191505060405180910390f35b600280600381111561026357fe5b600360009054906101000a900460ff16600381111561027e57fe5b1461028857600080fd5b6102906107fc565b600160003373ffffffffffffffffffffffffffffffffffffffff1673ffffffffffffffffffffffffffffffffffffffff168152602001908152602001600020604051806060016040529081600082015481526020016001820160009054906101000a900460ff16151515158152602001600282015481525050905060001515816020015115151461032057600080fd5b600280549050831061033157600080fd5b60018060003373ffffffffffffffffffffffffffffffffffffffff1673ffffffffffffffffffffffffffffffffffffffff16815260200190815260200160002060010160006101000a81548160ff02191690831515021790555082600160003373ffffffffffffffffffffffffffffffffffffffff1673ffffffffffffffffffffffffffffffffffffffff168152602001908152602001600020600201819055508060000151600284815481106103e457fe5b9060005260206000200160000160008282540192505081905550505050565b6002818154811061041057fe5b906000526020600020016000915090508060000154905081565b60008054906101000a900473ffffffffffffffffffffffffffffffffffffffff1673ffffffffffffffffffffffffffffffffffffffff163373ffffffffffffffffffffffffffffffffffffffff16146104eb576040517f08c379a000000000000000000000000000000000000000000000000000000000815260040180806020018281038252600c8152602001807f216368616972706572736f6e000000000000000000000000000000000000000081525060200191505060405180910390fd5b600360009054906101000a900460ff16600381111561050657fe5b81600381111561051257fe5b1161051c57600080fd5b80600360006101000a81548160ff0219169083600381111561053a57fe5b021790555050565b60008054906101000a900473ffffffffffffffffffffffffffffffffffffffff1681565b600180600381111561057457fe5b600360009054906101000a900460ff16600381111561058f57fe5b1461059957600080fd5b60008054906101000a900473ffffffffffffffffffffffffffffffffffffffff1673ffffffffffffffffffffffffffffffffffffffff163373ffffffffffffffffffffffffffffffffffffffff161461065a576040517f08c379a000000000000000000000000000000000000000000000000000000000815260040180806020018281038252600c8152602001807f216368616972706572736f6e000000000000000000000000000000000000000081525060200191505060405180910390fd5b60001515600160008473ffffffffffffffffffffffffffffffffffffffff1673ffffffffffffffffffffffffffffffffffffffff16815260200190815260200160002060010160009054906101000a900460ff161515146106ba57600080fd5b60018060008473ffffffffffffffffffffffffffffffffffffffff1673ffffffffffffffffffffffffffffffffffffffff168152602001908152602001600020600001819055505050565b6000600380600381111561071557fe5b600360009054906101000a900460ff16600381111561073057fe5b1461073a57600080fd5b60008060005b60028054905081101561079d57826002828154811061075b57fe5b90600052602060002001600001541115610790576002818154811061077c57fe5b906000526020600020016000015492508091505b8080600101915050610740565b5060038210156107a957fe5b80935050505090565b60016020528060005260406000206000915090508060000154908060010160009054906101000a900460ff16908060020154905083565b600360009054906101000a900460ff1681565b60405180606001604052806000815260200160001515815260200160008152509056fea2646970667358221220d7624507eaba139f6f29c82375e6be8bb3936743279608d46984a77f83eff83d64736f6c63430007000033",
  "immutableReferences": {},
  "source": "// SPDX-License-Identifier: MIT\n\npragma solidity ^0.7.0;\n\ncontract Ballot {\n    \n    struct Voter {\n      uint weight;\n      bool voted;\n      uint vote;\n    }\n    \n    struct Proposal{\n        uint voteCount;\n    }\n    \n    address public chairperson; // Ethereum address is 20 bytes long = 0x5B38Da6a701c568545dCfcB03FcB875f56beddC4\n    mapping(address => Voter) public voters;\n    // {\n    //     \"0xabcd.1234\" => {weight,voted,vote},\n    //     \"0xab12..def2\" => {weight, voted,vote}\n    // }\n    // syntax for mapping and it is used to represent JSON structure in solidity\n    // mapping( keyType => valueType ) public variable_name ;\n    Proposal[] public proposals; \n    \n    enum Phase {Init, Regs, Vote, Done}\n    // it can take only 0,1,2,3 values:\n    \n    Phase public state = Phase.Done;\n    \n    constructor (uint numProposals) {\n        chairperson = msg.sender;\n        voters[chairperson].weight = 2;\n        for(uint prop = 0 ; prop < numProposals ; prop++){\n            // Proposal memory p;\n            // p.voteCount = 0;\n            // OR\n            // Proposal memory p = Proposal(0);\n            // proposals.push(p);\n            // OR\n            proposals.push(Proposal(0));\n        }\n        state = Phase.Regs;\n    }\n    \n    modifier onlyChair() {\n        require(msg.sender  == chairperson,\"!chairperson\");\n        _;\n    }\n    \n    modifier validPhase(Phase reqPhase) {\n        require(state == reqPhase);\n        _;\n    }\n    \n    function changeState(Phase x) public onlyChair {\n        require(x > state);\n        state = x;\n    }\n    \n    function register(address voter) public validPhase(Phase.Regs) onlyChair {\n        require(voters[voter].voted == false);\n        voters[voter].weight = 1;\n    }\n    \n    function vote(uint toProposal) public validPhase(Phase.Vote) {\n        Voter memory sender = voters[msg.sender];\n        \n        require(sender.voted == false);\n        \n        require(toProposal < proposals.length);\n        \n        voters[msg.sender].voted = true;\n        voters[msg.sender].vote = toProposal;\n        proposals[toProposal].voteCount += sender.weight;\n    }\n    \n    function reqWinner() public validPhase(Phase.Done) view returns(uint) {\n        uint winningVoteCount = 0;\n        uint winningProposal = 0;\n        for(uint prop = 0 ; prop < proposals.length ; prop++){\n            if(proposals[prop].voteCount > winningVoteCount) {\n                winningVoteCount = proposals[prop].voteCount;\n                winningProposal = prop;\n            }\n        }\n        assert(winningVoteCount >= 3);\n        return winningProposal;\n    }\n}",
  "sourcePath": "/Users/natasha/Desktop/data/SC_Essentials/Lab9/contracts/Ballot.sol",
  "compiler": {
    "name": "solc",
    "version": "0.7.0+commit.9e61f92b.Emscripten.clang"
  },
  "schemaVersion": "3.3.3",
  "updatedAt": "2021-01-28T05:10:13.059Z",
  "devdoc": {
    "kind": "dev",
    "methods": {},
    "version": 1
  },
  "userdoc": {
    "kind": "user",
    "methods": {},
    "version": 1
  }
}